:020000040800F2
:10000000C8AE0020DD010008298C0008F973000843
:10001000258C0008FD090008C19C000800000000B4
:100020000000000000000000000000004501000882
:100030009D0F0008000000008901000815930008CA
:10004000F7010008F7010008F7010008E98D000832
:10005000F7010008F7010008F7010008F7010008A0
:10006000F7010008F7010008F7010008F701000890
:10007000F7010008F7010008F7010008F701000880
:10008000F7010008F7010008F7010008F701000870
:10009000F7010008F7010008F7010008F701000860
:1000A000F7010008019C0008F7010008F7010008AB
:1000B000F7010008F7010008F7010008F701000840
:1000C000F7010008F7010008F7010008F701000830
:1000D000F7010008F7010008F7010008F701000820
:1000E000F7010008F7010008F7010008F701000810
:1000F000F7010008F7010008F7010008F701000800
:10010000F7010008F7010008F7010008F7010008EF
:10011000F7010008F7010008F7010008119C00082A
:10012000F7010008F7010008F7010008F7010008CF
:10013000DFF80CD000F034F9004800472D6C0108BE
:10014000C8AE0020224B19680868B0E8F00F80F3B1
:100150000988BFF36F8F4FF0000080F311884EF0D5
:100160000D0E70470000000006480068006880F32C
:10017000088862B661B6BFF34F8FBFF36F8F00DFA1
:1001800000BF00BF08ED00E0EFF30980BFF36F8F01
:100190000F4B1A6820E9F00F106008B54FF05000BF
:1001A00080F31188BFF34F8FBFF36F8F18F0B8FA49
:1001B0004FF0000080F31188BDE808401968086816
:1001C000B0E8F00F80F30988BFF36F8F704700BF6E
:1001D00060000020EFF3058070470000064880476C
:1001E00006480047FEE7FEE7FEE7FEE7FEE7FEE71C
:1001F000FEE7FEE7FEE7FEE7D193000831010008C5
:1002000010B5431A934209D28318881803E010F8F6
:10021000011D03F8011D521EF9D210BD40EA010371
:100220009B0703D009E008C9121F08C0042AFAD2AC
:1002300003E011F8013B00F8013B521EF9D210BD5A
:10024000D2B201E000F8012B491EFBD27047002218
:10025000F6E710B513460A4604461946FFF7F0FFC5
:10026000204610BD421E12F8013F002BFBD111F8B1
:10027000013B02F8013B002BF9D17047421C10F8FA
:10028000011B0029FBD1801A704730B504460020BD
:10029000034600E05B1C934203D2E05CCD5C401B54
:1002A000F8D030BD034611F8012B00F8012B002ACD
:1002B000F9D118467047C10F80EAE0700844CA07B8
:1002C0009623002100F03DB820F00040C10DC0F39E
:1002D000160040F400007F2901DA002070479629BB
:1002E00003DCC1F19601C8407047963988407047D9
:1002F000002801DBC0F10040002901DBC1F1004111
:100300008142704730B50B4601460020202201246F
:1003100009E021FA02F59D4205D303FA02F5491BD3
:1003200004FA02F52844151EA2F10102F1DC30BDE9
:100330000029A8BF7047401C490008BF20F00100F9
:10034000704710B4B0FA80FC00FA0CF050EA0104D7
:1003500004BF10BC704749B1CCF1200421FA04F469
:1003600011FA0CF118BF012121430843A3EB0C0142
:10037000CB1D4FEA00614FEA102042BF002010BCA5
:10038000704700EBC35010440029A4BF10BC704755
:10039000401C490008BF20F0010010BC704700005D
:1003A000064C074D06E0E06840F0010394E80700C2
:1003B00098471034AC42F6D3FFF7BEFEB0D4020823
:1003C000D0D4020870B58C1810F8015B15F0070343
:1003D00001D110F8013B2A1106D110F8012B03E0DE
:1003E00010F8016B01F8016B5B1EF9D12B0705D4E6
:1003F0000023521E0DD401F8013BFAE710F8013B2F
:10040000CB1A921C03E013F8015B01F8015B521E4A
:10041000F9D5A142D8D3002070BD000038B5456899
:1004200004460146284609F06DFC00282BD02068C0
:10043000304A11280DD006DC0B2825D00E2833D0E9
:100440000F2852D112E0282849D0B0F5107F4CD1A6
:1004500008E09268002A16D02146284601B0BDE87F
:1004600030401047214628465268F7E7284601F0F9
:1004700063FB0090406E0468684601F0B9FB002CF5
:1004800001D02846A04738BD284601F055FB009012
:10049000683001F07DFA009803216C3001F086FA93
:1004A000684601F0A5FB20E0E168486809680D296D
:1004B00002D0202913D105E0002810DD284611F0D4
:1004C0009FF906E0002804DD2846BDE8384011F019
:1004D00097B92846BDE83840022111F0A7B9E06875
:1004E00018B90021284600F013FA2046BDE838402C
:1004F00009F0FCBE60010020F0B5044685B08069BB
:10050000B4F90850668A0027CDE90265CDE90017E5
:100510000490B4F90C00B4F91060C118B4F90A00E1
:10052000B4F90E50104433462A4600F007F8054649
:10053000616800F01DFA05B02846F0BD2DE9F04FC6
:1005400085B01F46DDE911B4DDE90E5690468946B7
:10055000824602F0D5FA16484C34CDE90204CDE9C2
:1005600000563B4642464946504609F007FE040005
:1005700018D001F0E1FA10225946049009F0AEFCBF
:10058000049830220B493430FFF73AFE094D0499A4
:100590000C3D2868486604A801F02AFB28684168D9
:1005A0002046884703F0A4FB05B02046BDE8F08F45
:1005B0001D0400086C010020F0B5044680688B49DA
:1005C00089B051F82050606800287DD0052804D0FB
:1005D00006287AD0122879D1AEE0E86900284FD0F9
:1005E00095E80E008DE80F0004F110010FC904F02A
:1005F00007FA002655F8260003F0F9F8A169E86922
:100600000A1A216901446069304402F051F8A16975
:10061000E8690A1A21690144E069801B02F048F880
:10062000E169E8690A1A616901442069304402F00D
:10063000ABF8E169E8690A1A61690144A069801BA5
:1006400002F0A2F8761C022ED4DBA86803F0CFF8E3
:10065000E069E9696669431A206942183144801CDF
:10066000521E02F0DBF8E169E869A2690B1A6169C0
:100670000144101A401C921E02F0D0F8EE6913E0FB
:100680005FF0000655F8260003F0B1F8E069831B1F
:10069000A069821B606981192069304402F034F836
:1006A000761C022EEEDB0226D5E90301CDE900011E
:1006B0006169E06908444310A069891C821B2069B4
:1006C000304401F0B9FF02E089E012E08AE0D5E9A8
:1006D0000501CDE90001E36960690121184401EBDE
:1006E0006001A0699B1E821B2069304401F0A4FFB9
:1006F00078E0206801F020FA049020680BF066F89A
:1007000040B1A06808B1002008E00498006F28B14B
:10071000012003E00498406F00B10220049901EB2E
:100720008000C56E04A801F063FA00231A4628462B
:10073000216801F02FFE55E0206801F0FDF90490DA
:10074000866EEEB3B0F95C70A168D1B3032942D0D4
:100750005FF0000100EB8101406D0C6C03F076F856
:10076000204603F044F805A802F010F9BDF8141073
:10077000A88B0144ADF81410BDF81810081AADF894
:100780001800BDF81600801CADF81600BDF81A0060
:10079000801EADF81A000498B0F96020B0F95E1020
:1007A00005A802F074FE04A801F022FA022003F06A
:1007B000D7F8304601F0C0F93A4605A9079001E0A4
:1007C0000BE006E001F052FE0DF11C0001F010FA02
:1007D00008E00121BEE70221BCE704A8F6E7206893
:1007E0000AF0B4FC09B00020F0BD000014BD0208FE
:1007F00038B505004FF000040BD002F081F928460F
:1008000001F09AF90090446D684601F0F1F903F0A7
:100810006FFA204638BD2DE9FC4115460E4604000E
:1008200022D002F06DF9204601F086F90190806E29
:10083000002798B101F080F90090FFF71FFD0446F2
:10084000681E844200DD0446224630460099FFF7C8
:10085000D7FC684601F0CCF9375500E0377001A8A5
:1008600001F0C6F903F044FABDE8FC8138B5040094
:100870000DD002F045F9204601F05EF90090B0F984
:100880005C40684601F0B4F903F032FA01E04FF041
:10089000FF34204638BDF8B50D4606004FF0000481
:1008A0000FD002F02DF9304601F046F90090032DEB
:1008B00002D200EB8500046C684601F099F903F060
:1008C00017FA2046F8BD38B505004FF000040DD0EA
:1008D00002F016F9284601F02FF90090408EC0F37F
:1008E0000024684601F084F903F002FA204638BD7E
:1008F00001490862704700006C010020032903D2FF
:10090000024A02EB8101C860704700006C010020C0
:100910004FF480720029114601D009F087BA09F01E
:10092000D1B9000038B50C46054602F0E9F8284672
:1009300001F002F90090064984654166684601F0BD
:1009400057F928460AF068F903F0D2F938BD0000DB
:100950009C010020042907D2044A52F821300146A4
:1009600020221846FFF74CBC7047000014BD020857
:100970002DE9FF410E4605004FF0010421D002F0A1
:10098000BFF8284601F0D8F80190876E01A80097BB
:1009900001F02EF93146684604F05CFB78B100980E
:1009A0000024B84208D0284601F0C6F8019000990A
:1009B000816601A801F01CF928460AF02DF903F020
:1009C00097F904B02046BDE8F081F8B515460C460D
:1009D000060012D002F094F8304601F0ADF8009015
:1009E000032C02D200EB84000564684601F000F994
:1009F00030460AF011F903F07BF9F8BD00BFFEE7BD
:100A000008B5002008F09CFB14490860042008F099
:100A100097FB13490860082008F092FB1149086011
:100A2000122008F08DFB10490860162008F088FBA2
:100A30000E490860202008F083FB0D49086002225F
:100A40002421684608F088FA9DF80000094948709A
:100A50009DF8010040B2087008BD000000000020B1
:100A600004000020080000200C00002010000020DE
:100A7000140000201F0000207CB509F077FD05461A
:100A8000002000902B461C4A0C2101901B4801F0CD
:100A900073FB044640F66101204609F07DFD0546E2
:100AA00017490AF064FA40F66401204609F074FD23
:100AB000054613490AF05BFA40F66801204609F042
:100AC0006BFD05460E490AF052FA40F669012046D0
:100AD00009F062FD05460A490AF049FA40F6660146
:100AE000204609F059FD054606490AF040FA064835
:100AF000846120467CBD00000D49010840AE02081B
:100B0000493B01084D610108840400207CB509F0CF
:100B10002DFD0546002000902B46284A0D2101900E
:100B2000274801F029FB04462648446140F651015C
:100B3000204609F031FD054623490AF018FA40F62F
:100B40005401204609F028FD05461F490AF00FFA16
:100B500040F65901204609F01FFD05461B490AF0E1
:100B600006FA40F65A01204609F016FD05461749D7
:100B70000AF0FDF940F65601204609F00DFD054644
:100B800013490AF0F4F940F65D01204609F004FD2E
:100B9000054610490AF0EBF940F65801204609F0E5
:100BA000FBFC05460C490AF0E2F940F656012046E6
:100BB00009F0F2FC0349886520467CBDA14101088B
:100BC000D4AC020884040020493B0108CB3A010858
:100BD0004D610108B16101088162010830B591B031
:100BE0000120394908704AF2FF5009900A900B9091
:100BF0000E9001460F910C900D9104201090002151
:100C000009A8FFF7A7FE314809900A900B900E90B3
:100C100001460F910C900D91022109A8FFF79AFE51
:100C2000032109A8FFF796FE012109A8FFF792FE0C
:100C30002748FFF75DFE02216FF07F40FFF75EFE61
:100C400001216FF07F40FFF759FE00216FF07F40D8
:100C5000FFF754FE002102A806F036FB1D48029063
:100C600003901A4806900146079104900591184890
:100C700006F034FB002102A806F09EFB09F076FC8A
:100C80000546002000902B46134A0B210190134883
:100C900001F072FA04461249486C12490AF067F9E9
:100CA0000F49886C0F490AF062F90D49C86C0D496B
:100CB0000AF05DF90A49086D0A490AF058F908482E
:100CC0000460204611B030BD180000203A3C4900B5
:100CD000E4AE010815161900153D0108A0AB020885
:100CE00084040020113C01087CB509F03FFC054656
:100CF000002000902B461C4A0B2101901B4801F05C
:100D00003BFA04461A48C46040F63501204609F013
:100D100043FC054617490AF02AF940F631012046FE
:100D200009F03AFC054613490AF021F940F6390169
:100D3000204609F031FC05460F490AF018F940F643
:100D40003701204609F028FC05460B490AF00FF947
:100D500040F63C01204609F01FFC05460749FFF715
:100D6000E1FD20467CBD00005D4F010890AF020808
:100D700084040020493B0108CB3A01084DF60008E5
:100D80007CB509F0F3FB0546002000902B46274A6E
:100D90000C210190264801F0EFF9044625488460B3
:100DA0002548FFF7A5FD40F64101204609F0F4FB78
:100DB000054622490AF0DBF840F64401204609F0D6
:100DC000EBFB05461D490AF0D2F840F645012046E6
:100DD00009F0E2FB054619490AF0C9F840F6470157
:100DE000204609F0D9FB054615490AF0C0F840F63F
:100DF0004801204609F0D0FB054611490AF0B7F832
:100E000040F64901204609F0C7FB05460C490AF0A7
:100E1000AEF840F64601204609F0BEFB054948659C
:100E2000486D08490AF0A3F820467CBD215301080B
:100E3000C4B0020884040020E4AE0108493B010864
:100E4000CB3A01084D6101087CB509F08FFB0546DE
:100E5000002000902B46254A0E210190244801F0E5
:100E60008BF904462348446040F62101204609F0EE
:100E700093FB054620490AF07AF840F62401204603
:100E800009F08AFB05461C490AF071F840F6250175
:100E9000204609F081FB054617490AF068F840F63C
:100EA0002901204609F078FB054614490AF05FF84D
:100EB00040F62A01204609F06FFB05460F490AF06B
:100EC00056F840F62B01204609F066FB05460B4913
:100ED0000AF04DF840F62601204609F05DFB054674
:100EE00007490AF044F820467CBD0000E15801089B
:100EF00014B2020884040020493B0108CB3A0108DF
:100F00004D6101087CB509F031FB054600200090D9
:100F10002B461C4A0A2101901B4801F02DF904467A
:100F20001A48046140F67101204609F035FB054678
:100F300017490AF01CF840F67401204609F02CFB12
:100F4000054613490AF013F840F67601204609F0E9
:100F500023FB05460F490AF00AF840F677012046C0
:100F600009F01AFB05460B490AF001F840F6750135
:100F7000204609F011FB0546074909F0F8FF204615
:100F80007CBD00001D5E01089CB3020884040020A3
:100F9000493B0108CB3A01084D6101087047704791
:100FA00070B50446B3F5804F13D1D1E9000540EA8E
:100FB00005108D6840EA05208D6928438D8940EA37
:100FC000054054F82250064E3540284344F822008C
:100FD00003E06FF0704044F82200002070BD000074
:100FE0000000F0CF10B50246086852F8200020F04B
:100FF00001000B6842F823008868082822D148685D
:1010000040F040008B681843CB6818430B691843C5
:101010004B6918438B691843CB6918430B6A184313
:101020004B6A18438B6A1843CB6A18430B6B1843FF
:101030000B6852F82330144C234018430B6842F8D5
:1010400023001FE0D1E901031843CB6818430B6963
:1010500018434B6918438B691843CB6918430B6AD3
:1010600018434B6A18438B6A1843CB6A18430B6BBF
:1010700018430B6852F82330034C234018430B6885
:1010800042F82300002010BD8100F7FF10B5034691
:10109000D1E9000440EA04108C6840EA04208C89FD
:1010A00040EA0444088A401E44EA0054087D801E39
:1010B00044EA00608C692043541C53F8244004F037
:1010C00040442043541C43F82400002010BD00007D
:1010D00010B5044600F022F84FF480100E49086065
:1010E000062008F058F810200B49086000F016F8A8
:1010F0004FF4801008490860D82008F04CF8002010
:1011000008F049F8200A08F046F8E0B208F043F881
:1011100010200149086010BD1008014010B50024DE
:101120004FF4801008490860052008F034F800BF2B
:10113000A52008F030F8C4B204F001000028F7D16F
:1011400010200149086010BD100801402DE9F0434E
:101150000446C56887B090468946002002F06AFBC5
:10116000064625B1287910B146F0020001E026F0CC
:10117000020002F05FFB2069012558B1D4E9021298
:101180008DE8260003956388228804684146484616
:10119000A0471EE0124F134B214638681B68427C63
:1011A000E068984730B9E088012801D0002001E0CC
:1011B0003868806BA288E388A1680095CDE90410A7
:1011C000CDE902320195638822884146484606F0FF
:1011D000D3FA07B03046BDE8F04302F02BBB000065
:1011E000F4000020EC00002010B5002002F0F4FA1A
:1011F0006FF07F4002F0FBFA012002F093FB002029
:1012000002F09EFB002002F0ABFB002002F012FB7C
:101210000448006802F01AFBBDE81040002002F00C
:1012200053BB0000F000002070B50C46054600F0EE
:10123000FDF8A8682168C16261680163A168416323
:10124000490707D5D0E90021C0E90012D0E9022101
:10125000C0E90212A18981842169002903D001DC3F
:101260004FF00001016270BD2DE9F0411E461746A6
:101270008846054600F0DAF8AC686822414604F575
:101280008670FEF7BDFF2846B8472846B047286954
:1012900080688047A062BDE8F081000010B5044678
:1012A00000F0C4F8A0680F49C0F8AC100E49C0F8AF
:1012B000A8100E49C0F8B0100D49C0F8B8100D497B
:1012C000C0F8B4100C49C0F8C4100C49C0F8C810DC
:1012D00030F8261F21F0030120F8261B08498164FD
:1012E00010BD00004D240108012B01081124010844
:1012F000D51E0108BD1E0108511F0108891F0108E4
:10130000A923010810B5044600F090F8A46810481D
:101310001021C4F8E4000F48C4F8E8000E48C4F8EF
:10132000EC000E48C4F8F0000D48C4F8A0000D48C9
:10133000C4F8A400D4F8C400C4F8FC00D4F8942085
:10134000204690471020A0630748606410BD00004D
:1013500065D30008B9FD00086D1300089D1400084E
:101360009F1E0108A1310108E0BC0208F8B584689D
:1013700015460F4694F8260080074CD5D4F8003166
:10138000204698470646D4F804312A463946204676
:101390009847D4F8983005461BB100220121204619
:1013A00098472069B04201DD012000E00020A169DA
:1013B000B14201DA012100E0002108436169A9423C
:1013C00001DD012100E000210843E169A94201DAC1
:1013D000012100E0002108430AD060680022401E7D
:1013E00000902368D4F8A870114620465B1EB847C9
:1013F000D4F8AC302A46314620469847D4F8A0109D
:1014000020468847D4F8983005466BB10122002168
:101410002046984708E0D4F8AC3020469847D4F8E6
:10142000A0102046884705462846F8BD70B50446FA
:101430008068002812D14FF4BA75284600F0C4FA2B
:101440002A460021A06003F076FEA0680221C18434
:101450000121046401620249C0F8081170BD000056
:101460006514000810B590B0044620220A49684669
:10147000FEF7C6FE08492022203108A8FEF7C0FE6C
:10148000606B5DF82010C4F8001108A951F8200025
:10149000C4F8040110B010BD48B502082DE9F843A6
:1014A00084689846154694F826000F46800740D574
:1014B000D4F80031204698470646D4F804312A462D
:1014C00039462046984705462069B04201DD012093
:1014D00000E00020A169B14201DA012100E0002111
:1014E00008436169A94201DD012100E000210843B0
:1014F000E169A94201DA012100E0002108430AD094
:1015000060680022401E00902368D4F8A87011463D
:1015100020465B1EB847D4F8AC302A4631462046F8
:101520009847D4F8A42001B041462046BDE8F043D6
:101530001047D4F8AC30F2E72DE9F04FDFF828B1CE
:1015400091B04FF0FF35DBF80030B3F9221006916F
:10155000DE69B3F924A0F469A189814206D8E28941
:10156000824203D3471AD4F8008012E0D4E9018103
:10157000002970D00A8882426DD84D8885426AD38E
:10158000801A82B2486800EB8200B0F90070B0F9AE
:101590000250781C5FD0307EA27C014600FB02F92D
:1015A000207CCDE90710B3F92A60304606F056FFDB
:1015B000C0B20E90DBF8001007FB0980A37C8A6B99
:1015C0000127CDE90402CDE90273C869089AC17EFA
:1015D000807ECDE90001DDE90603514606F0CCF836
:1015E000681C18D046F0020006F038FFDBF8000057
:1015F000A37C05FB0981826BCDE90273CDE904125E
:10160000C069089AC17E807ECDE90001DDE906034C
:10161000514606F0B1F8DBF800005D46C069417E36
:10162000007E814214D9022E12D086F0040006F00A
:1016300015FF2868C069027EC37E857E02FB03A178
:10164000437E089A0698534402FB050206F020FAEE
:101650000E9806F003FFDBF80000627C418C114419
:10166000418411B0BDE8F08FF40000200448006808
:10167000C069C06909B1027C0A60407C7047000003
:10168000F4000020022008807047C06982898A42E5
:1016900002D8C2898A4210D2806880B102888A4208
:1016A0000DD843888B420AD3406800EB8100A0EB41
:1016B0008200B0F90000002801DB01207047002003
:1016C000704700002DE9F0432F4C034687B0206897
:1016D0001946B0F92A80C069C06900F082F8002874
:1016E0004ED041680088181A01EBC0054046AE781C
:1016F00006F0B4FE814620686A680123816BCDE95B
:101700000236CDE90421C169CB7E8A7ECDE9002372
:101710000B7EB0F924102A78B0F9220006F02CF8DC
:101720002068C069477E067EB7421DD9C07E474308
:101730004643B8F1020F17D001F02DF9804601F0B1
:10174000F3F802F054F821682A78CB69B1F9220045
:10175000B1F92410DB7E02FB0302CB19314406F001
:1017600097F9404602F043F8484606F077FE2068B5
:101770006A78C369B0F922109B7E02FB0311418491
:1017800007B0BDE8F0830000F400002030B50E4C37
:1017900005460B4620682946C069C06900F021F85B
:1017A000002810D04168008824682A1A0120E469C2
:1017B00000EBC200085CA47E6043002B03D011F84C
:1017C00032106143196030BDF40000200120088010
:1017D000704700B5C06900F004F8002800D001206F
:1017E00000BD06E002888A4202D842888A4202D2BC
:1017F00080680028F6D170472DE9F0410025154E8C
:10180000154C18E02069C5EB051700EBC7007022E6
:10181000001D3168FEF7F4FC2069002140F8371004
:1018200000EBC70000F10C018161011D0A1DC0E938
:101830000F126D1C4164A0688542E3DB0FF0C2FB10
:101840002169C0EB001001EBC000001D3060BDE855
:10185000F0810000F40000206003002070B50F4903
:101860000D480860084603F0B5FB0C4C143CA0681A
:10187000C0EB0010C500284600F0A6F82A4600215B
:10188000206103F058FC4FF0FF30206002F06EFA48
:10189000BDE870400FF096BB3D19010874030020AD
:1018A000F8B50C0005460FD001F02AF9204600F0EB
:1018B00017F8060010D000F03FF9224600902DB135
:1018C0002946FEF79DFC04E00020F8BD002103F04E
:1018D00032FC684600F08CF902F00AFA3046F8BD96
:1018E00010B5040009D001F00BF920460AF0C8FA3F
:1018F000044602F0FDF9204610BD002010BD38B5A9
:10190000054601F0FDF82846FFF7EAFF040009D07C
:1019100000F012F92A460021009003F00CFC684602
:1019200000F066F902F0E4F9204638BD024A106082
:1019300021F00300506070479CA8002010B50400FF
:1019400016D001F0DDF80B48406B10F8341059B197
:10195000022909D2042101EBC401415848680AF068
:1019600047FA204610F07CFABDE8104002F0C0B9FA
:1019700010BD0000DCA70020002805D0034AD16B71
:10198000016001B14860D06370470000DCA700200F
:1019900010B5044601F0B4F82068FFF7CFFF00202F
:1019A0002060BDE8104002F0A3B9000070B50D46FC
:1019B0000646002405E000BF06EB8400FFF7E8FFC1
:1019C000641CAC42F8DB70BD2DE9F04104460FF019
:1019D000B7FC2848E41C24F00305016C2D1DA94226
:1019E00000D90D46C46B13E054F8042CAA420ED162
:1019F00084B1216809B162684A60616809B12268EE
:101A00000A60C26BA24231D12168C1632EE0246812
:101A1000002CE9D18046816BC0680F1857F8040C80
:101A20003E1A306838B1002010F026FB57F8040C3D
:101A30003E1A3068D0B97068A84217DB3044441BA6
:101A40003046241D10F0D0FAD8F80C10491BC8F805
:101A50000C10D8F814102944C8F814107068401BF2
:101A600002D031460AF0C4F944F8045C2046BDE8CF
:101A7000F0810000DCA7002010B500240FF060FC0E
:101A80000C490F2001EBC002526C1AB101EBC000EF
:101A9000406C08E0401EF5D508E04168A14200D93D
:101AA0000C46806810B180680028F6D1A4F10C00C3
:101AB00010BD0000DCA7002000B5020010D0094BCB
:101AC0005969D8680844106000F018F8906000F078
:101AD0000BF85060D868D060586910619868506100
:101AE00000BD0000DCA70020034800680C38002877
:101AF00000DC002070470000DCA700200248C1681D
:101B00000068081A70470000DCA70020002138B1E7
:101B10000449042202EBC000496B085841680C39A3
:101B200008467047DCA7002002488169491C816192
:101B300070470000DCA700200549CA69521CCA6131
:101B4000496B01EBC0010A78521C0A7000F068B8BA
:101B5000DCA700207CB506460C460846FFF7C0FE11
:101B6000050020D0FEB13046FFF7D0FFA04200DADA
:101B7000044600F0C5FF2846FFF7DEFF0090304620
:101B8000FFF7DAFF0146019022460098FEF738FB86
:101B9000684600F02DF801A800F02AF83046FFF75B
:101BA000CDFE02F0A5F828467CBD000010B500F07F
:101BB000A7FFFFF761FF64220849B0F5800F04D941
:101BC00090FBF2F4086A444303E0096A4143B1FB25
:101BD000F2F402F08DF8204610BD0000DCA70020D2
:101BE00002488169491E816170470000DCA700201E
:101BF0000A4902684B6B52F8082C03EBC2021378B7
:101C0000022B03D3CB690BB15B1ECB611178491E4C
:101C1000117000210160084670470000DCA7002019
:101C2000002806D00349042202EBC000496B085883
:101C300008307047DCA700202DE9FC414FF000067A
:101C40000B465FEA000834462BD032B111461846E5
:101C5000FFF726FE060000D101244046FFF76CFF87
:101C60000090078845686846FFF7C2FFCCB9B90005
:101C70002846091DFFF76EFF050015D0FFF75CFF32
:101C8000019040F8276001A8FFF7B2FF4046FFF738
:101C900053FF009045600188491C01806846FFF7AA
:101CA000A7FF2046BDE8FC813046FFF747FE012430
:101CB000F7E70820FFF723BE7CB5050023D0FFF728
:101CC0003BFF00904068C0B1FFF736FF0024019051
:101CD00005E0019800EB8400FFF75AFE641C0098B1
:101CE0000088A042F5DC01A8FFF782FF0098001DE4
:101CF000FFF74EFE0099002008806846FFF778FF46
:101D00002846FFF71BFE7CBD38B5002430B1FFF735
:101D100013FF009004886846FFF76AFF204638BD2D
:101D200038B50D46002448B1FFF706FF294600905C
:101D300000F04EF804466846FFF75AFF204638BDCB
:101D40002DE9FF4107460E46154600241046FFF7D1
:101D5000D6FD009030B33846FFF7EEFE31460190D5
:101D600000F036F802900098FFF7E6FE2A4603904E
:101D70000299FEF745FA02A8FFF73AFF03A8FFF71A
:101D800037FFDDE90020314600F02CF818B1684635
:101D9000FFF7FEFD03E00098FFF7CEFE044601A822
:101DA000FFF726FF04B02046BDE8F08138B50D46A8
:101DB00001880024A94209D9406838B1FFF7BCFE68
:101DC000009050F825406846FFF712FF204638BDC6
:101DD00010B50024FFF7EAFF10B1FFF7ADFE04468F
:101DE000204610BD38B50C46014615460A8801202C
:101DF000A24210D9496800290DD00846FFF79CFE81
:101E000000EB840400902046FFF7C2FD6846256081
:101E1000FFF7EEFE002038BD10B5044600F070FE5E
:101E2000044904EB840001EB8000447901F060FF79
:101E3000204610BD3CA900202DE9FC5F89460446E0
:101E400000F05EFE484600F0B3FD2C4E09EB89071A
:101E5000824656F82700019029484FF00108016892
:101E600041B92749C0F80080091D26480860084686
:101E700003F0B0F8214A09EB8901BAF1000002EB46
:101E800081051BD001F08CFC83464FF07F4001F0B0
:101E9000A3FC00F093F800221146206800F0A0FB9C
:101EA000206842880188504601F0F0FC46F827403F
:101EB00085F80580584601F073FC17E046F8274086
:101EC00085F805802869464618B101F099FB002085
:101ED000286174B10096E868A1684B46421AA86868
:101EE0006168411A206801F0E5FB2861484610F05E
:101EF000DDFE01F0FDFE0198BDE8FC9F3CA900203D
:101F0000300300202519010870B514460D46064619
:101F100000F0F6FD204600F04BFD0300174804EBEF
:101F2000840109D050F8210041688068711A2A1A8A
:101F3000184601F09BFC1CE000EB8104A268B24251
:101F400001D0012200E00022E368AB4201D001236E
:101F500000E000231A430CD0236943B150F821005C
:101F6000816840686A1A311A184601F06EFBC4E9AC
:101F70000265BDE8704001F0BBBE00003CA9002036
:101F800010B5C2B2CBB2D21A00D5524293B25B4363
:101F9000C0F30722C1F30724121B00D55242000CE4
:101FA00092B2A0EB114002FB023200B2002801DA2B
:101FB000404200B280B200FB002010BD10B50021ED
:101FC000084600F049FD43F6FF725042BDE810405C
:101FD00013460146AFF300802DE9FC411C4615462F
:101FE0000E46074600F08CFD042006F037FA8046C6
:101FF0001248C068C16C006D0F4406440D4404448F
:10200000ADF80070ADF80450ADF80260ADF80640D0
:10201000684609F067FA07E023462A463146384603
:1020200005F036FD09F012FA0028F5D1404606F019
:1020300015FA01F05DFEBDE8FC810000E80000201B
:1020400070B586B00D4606461446114601A802F04A
:1020500090FFBDF8060013282ED00CDCA0F106007E
:102060000D2820D2DFE800F024263436383A4446E2
:102070001F484C4A5000192836D008DCA0F1140043
:10208000052810D2DFE800F01A1C1E2022001C28B0
:1020900028D004DC1A2829D01B2804D120E01D28D0
:1020A00030D0642802D0012006B070BD00212CE0A1
:1020B0001A492AE01A4928E01A4926E01A4924E078
:1020C0001A4922E01A4920E01A491EE01A491CE088
:1020D0001A491AE01A4918E01A4916E01A4914E098
:1020E0001A4912E01A4910E01A490EE01A490CE0A8
:1020F0001A490AE01A4908E01A4906E01A4904E0B8
:102100001A4902E01A4900E01A4900912B4632466A
:10211000214601A801F0D8FF0020C5E768CB0208DE
:1021200078CB02085CCA02086CCA02087CCA0208A2
:102130008CCA02089CCA0208ACCA0208DCCA02089F
:10214000ECCA0208BCCA0208CCCA0208BCB4020825
:10215000CCB40208DCB40208ECB4020888CB020854
:1021600098CB0208A8CB02084CCA0208FCCA020895
:102170000CCB0208B8CB02082DE9F8431C00DDE9BE
:10218000089816460F46054602D108F0EFF90446B6
:1021900000962E6843464A4621462846B047061E0A
:1021A00039D008F0D8F98146698A304607F03EFEFA
:1021B000304609F023F8484609F020F84FF00008AF
:1021C0000CE000BFCDF8008055F81CCF00231A4664
:1021D00049462846E04700B309F010F87F1E002F5B
:1021E000F0DC1D21484608F0A2FE601C12D000F071
:1021F00087FC08F0EFF930B1FFF712FD8469B442B3
:1022000001D02000F8D1B44202D0304608F06CFF73
:1022100001F06EFD3046BDE8F883304608F09EF8C8
:102220000020F8E72DE9F0411C4616460D4607460A
:10223000022B02DB0020BDE8F0811C20FFF7C4FB6D
:102240000028F8D00DB105610AE0094A52F82410BF
:1022500009B905E011460A68002AFBD10969016144
:1022600084618682002101604160C0E90217E2E7D3
:102270000C01002070B51D46FFF7D4FF040009D003
:1022800000F00EF8E068006820B90348006800EB31
:1022900085008465204670BDF4000020FFF76CBB0C
:1022A00070B590B38269022A30DA1E4C54F82210BD
:1022B00019B944F8220032E019464B68002BFBD1D3
:1022C00006E0CB68C5681B682D68AB4203DD096872
:1022D0000029F6D11AE0C1B1CB68C6681B68366820
:1022E000B3420CD1838A012B05D008E01946DB6884
:1022F0001B68AB4203DB0B68002BF7D129B14B689D
:1023000033B118604A68426004E0FFE7012070BD05
:1023100044F822004860884200D10021016000207A
:1023200070BD00000C01002010B503E00468FFF749
:10233000B7FF20460028F9D110BD00000A4A816984
:1023400052F82130834202D1036842F821304168BB
:1023500009B102680A60016809B142684A60002157
:1023600001604160704700000C01002000207047B0
:10237000022801DB00207047054951F8200004E0E5
:10238000C16809680029F6D000680028F8D17047B4
:102390000C0100202DE9F8431D461646884604002E
:1023A0000CD0FFF7C9FB0090006807686846FFF78C
:1023B0001FFC2B46324641462046B847BDE8F8830D
:1023C00038B504004FF000000AD02046FFF7B4FBF8
:1023D0000090006845686846FFF70AFC2046A84759
:1023E00038BD38B504004FF000000AD02046FFF792
:1023F000A3FB0090006885686846FFF7F9FB20465C
:10240000A84738BD2DE9F041044601F0AAFC0619A1
:102410001EE000BF00F0E0F9052F00DD052700F009
:102420006FFB11480568FFF77FFB2C0017D000BF3A
:1024300001F05EFC641EFBD1384601F087FC1DB143
:1024400000F05EFB6D1EFBD1FFF7CAFB01F050FCF4
:1024500001F087FC371A002FDCDCBDE8F08138463C
:1024600001F074FCF0E700006C03002047F6FF73F6
:10247000AFF300802DE9FC411F4690460D46060053
:102480004FF000041AD000F03BFB65B1284608F07D
:10249000A5FE040007D002462946684602F06DFCFE
:1024A000684608F09BFE3B4642462946304601F00E
:1024B00081FE204608F092FE01F01AFCBDE8FC8186
:1024C0002DE9FF4F87B09046894607007DD000F088
:1024D00017FBD9F80040D9F8045021B228B2401AAD
:1024E000401C029000F06EFA064618F00C0F1ED049
:1024F00038460A9A029901F005FC08F00C010429FB
:1025000004D0082902D00C2911D104E0291400FBC1
:102510001610401C09E02114C1EB254200FB1620D7
:10252000401C00EBD07001EB600060F31F44484694
:1025300008F054FE5FEA000B09D00246494604A8A1
:10254000CDE9044502F019FC04A808F047FEA6F105
:10255000010A38460A9A029902F0BCFD03900AEB80
:10256000244060F31F45CDE900453846039902F049
:102570006DFB18F003010ED001292CD002290ED1D9
:10258000B9F90420B9F90010521A101A00EBD070F2
:1025900001EB600001E0B9F80000ADF800006A4608
:1025A0003846039901F0AEFD38460A9A029902F0C6
:1025B00087FD074406EB244060F31F443878002869
:1025C000C7D1584608F00AFE00E001E001F090FB98
:1025D0000BB0BDE8F08FB9F80410081A401CDCE716
:1025E0007CB514460D46064600F08AFA114800688C
:1025F000C16C006D0D4404443188681E0844ADF878
:102600000400ADF800507188601E0844ADF8060063
:10261000ADF80240684608F065FF06E0224629460C
:102620003046FEF793FD08F011FF0028F6D101F0C7
:102630005FFB7CBDF40000202DE9F04F87B09B4686
:10264000DDE9109892460C46054600F059FA164806
:102650000168C86C096D47190E1900EB0A0501EBFA
:102660000B04ADF81070ADF81450ADF81260ADF871
:10267000164004A808F036FF88B1DFF830B04FF0FC
:10268000010ACDE90098CDE902BA23462A4631462F
:1026900038460CF0B1FD08F0D9FE0028F1D101F068
:1026A00027FB07B0BDE8F08FF40000207D7900081B
:1026B0002DE9FC4114460D46064600F021FA114F63
:1026C0003968C86C096D054404440E44ADF80050E7
:1026D000ADF80440ADF80260ADF80660684608F059
:1026E00001FF08E0386822463146406E03682846FC
:1026F000984708F0ABFE0028F4D101F0F9FABDE8E4
:10270000FC810000F40000202DE9FC411C46164627
:102710000D46074600F0F4F91A480168087ECA6CB5
:10272000096D17440D440C44401E391A1644ADF887
:1027300000103118ADF80410291A2044ADF8060035
:10274000ADF80210684608F0CDFE15E03246294685
:10275000384605F013F932462146384605F00EF9A1
:10276000621E691C384605F069F9621E691C304614
:1027700005F064F908F06AFE0028E7D101F0B8FA24
:10278000BDE8FC81F40000207CB514460D460646E9
:1027900000F0B6F90F480068C16C006D0E440544A6
:1027A0000444ADF80060ADF80460ADF80250ADF837
:1027B0000640684608F096FE06E022462946304666
:1027C00005F03CF908F042FE0028F6D101F090FA3D
:1027D0007CBD0000F400002010B5002400E00124BE
:1027E00000F004F80028FAD1204610BD094810B5C1
:1027F0000068002410B1804700B1012407F02AFED0
:1028000000B101240448006810B1804700B10124E0
:10281000204610BD18010020140100202DE9FC41C4
:102820001C4615460E46074600F06AF91048006837
:10283000C16C006D0F4406440D440444ADF80070B3
:10284000ADF80450ADF80260ADF80640684608F0F7
:1028500049FE07E023462A463146384605F018F976
:1028600008F0F4FD0028F5D101F042FABDE8FC8142
:10287000F400002008B50B46002805D0009281889E
:102880008268C08800F001F808BD10B50828029CD5
:1028900030D008DC04FB01F401280AD0022813D050
:1028A000042804D11CE0102828D020282CD0002097
:1028B00010BD04EBD30003F00701105CC1F1070168
:1028C000C84000F0010010BD04EB93000621105C2D
:1028D00001EA4301C1F10601C84000F0030010BD48
:1028E00004EB5300D907105C02D000F00F0010BDBC
:1028F000000910BD04FB0130105C10BD481004FB42
:10290000003032F8100010BD881004FB003052F87F
:10291000200010BD034951F82000C1688A6A0821CF
:10292000104700000C01002010B500F0E9F805F098
:10293000DFF805F0D9F9044601F0DAF9204610BDB8
:1029400010B5044600F0DCF8054800210068C069B5
:10295000426820469047044601F0CAF9204610BD5F
:10296000F400002070B50C46054600F0C9F8064892
:1029700021460068C069426828469047044601F035
:10298000B7F9204670BD0000F4000020002801D0F7
:1029900007F0BEBD704710B500F0B2F805F0B0F812
:1029A00005F0A2F9044601F0A3F9204610BD00008D
:1029B0000021022802D2024951F82010084670472F
:1029C0005803002010B500F09BF804480068C06967
:1029D000447E01F08DF9204610BD0000F400002077
:1029E00070B514460D46064600F08AF82246294680
:1029F000304605F009F910B1002028602060BDE8DC
:102A0000704001F075B970B50C46054600F078F8D5
:102A10002146284602F06EF9BDE8704001F068B921
:102A200010B5044602F058F901462046BDE81040B2
:102A300002F00CB9407E7047024951F8200000694D
:102A4000006870470C010020024951F8200000691D
:102A5000406870470C01002070B50D46044600F038
:102A60004FF820460EF028FB044628460EF02CFBBB
:102A7000044301F03DF9204670BD00002DE9F0410E
:102A80001948016821F0010101601848012585609D
:102A90001749016000681749884200D0FEE701F03D
:102AA00043FA154E2E20307001F05FF913480EF0F6
:102AB0000DFC13F07DFE074605F0CEF810B105F0D1
:102AC000DFF838B905F0E5F8044605F0CEF8214600
:102AD00005F0BEFC0021084600F004FF07F0F2FFFD
:102AE00075703846BDE8F081002000E000300240FB
:102AF000C2A507F4CDB5E8B5E8000020A8A80020DD
:102B000070B5184CE06820B101F027F9616888427F
:102B100004D001F041F901F020F96060E068401C48
:102B2000E06001281CD10EF04DFA05462068854270
:102B300016D0002813DBFFF719FC01462068C0EB14
:102B40000012206900EBC2025167C5EB0511064A6D
:102B500000EBC100011D1160406FFFF7E5FB256030
:102B600070BD000060030020F40000201CB50400CC
:102B700004D10E480068046E002C16D0FFF7C0FF89
:102B80002046FEF7D9FF009044696846FFF730F809
:102B90004CB12046FEF7D0FF0190816889688847D4
:102BA00001A8FFF725F801F0A3F81CBDF4000020F0
:102BB00001490A4600F002B801F0FFFF2DE9F04399
:102BC00087B015460C465FEA000846D0FFF798FF2D
:102BD000002000F02FFE814621480068066E404626
:102BE000FEF7AAFF00900068806900F0D9FD074653
:102BF00040F6FF70C44204D10098B0F90440B0F927
:102C000006500098611E0289ADF804401144ADF8E9
:102C100008104189681E0844ADF80650ADF80A0056
:102C200007F054FA6846FEF7E3FF01A808F05AFCE3
:102C300006E02A462146404600F0DEFB08F006FC8E
:102C40000028F6D1384600F0ABFD304600F0E6F93A
:102C5000484600F0EFFD01F04BF807B0BDE8F08307
:102C6000F400002038B50024009400F001F838BDCD
:102C70002DE9FE4F984691468A46834600270C9ED2
:102C8000FFF73EFF184819490068407C51F8204082
:102C9000E1680968042903D02468002CF8D100E019
:102CA0001CB9FFF765FB041E1BD0E0680121C26A56
:102CB00020469047050011D02469A0688047401C39
:102CC00002D10B4C46F001060096CDE90154434673
:102CD0004A465146584600F035FA074601F008F8D2
:102CE0003846BDE8FE8F0000F40000200C010020F3
:102CF000B8BF02082DE9FE4F9846DDE90D650C9F2F
:102D000091468A46834600246DB1FFF7F9FE00978D
:102D1000CDE9016543464A465146584600F012FA4D
:102D2000044600F0E5FF2046BDE8FE8F38B50400FC
:102D30001CD0FFF7E5FE0E480068006EA04201D1EE
:102D400000F020FD2046FEF7F7FE0090406908B134
:102D500000F0B7FF00980068FFF7A0FA6846FEF79A
:102D600047FF2046FEF7EAFD00F0C2FF38BD000035
:102D7000F40000202DE9FF4F83B09A468B460746AA
:102D8000FFF7BEFEDFF83891D9F80000447C4D48CB
:102D900000570128204606DD04F064FF0546204662
:102DA00004F074FF05E004F045FF0546204604F0FA
:102DB00047FF04461FB302A901A8FFF724FEB7F995
:102DC0000000002800DA0020B7F902608046002EDB
:102DD00000DA002601984119B7F90400491E0EF0E7
:102DE000C2FB054602980119B7F90600491E0EF00C
:102DF000BAFBA5EB0802841B521C641C03E04FF0D5
:102E0000000846462A46BAF1000F01D1C4F1000A73
:102E1000002A51DD002C4FDD1098009053463146BA
:102E20004046FFF725FF5FEA000A10D000F0B0F837
:102E30000746A04206D0D9F80000806C10B13221BC
:102E400008F0E0FE504600F0E9F8002523E059467E
:102E50000598884700F04CFF012007B0BDE8F08FCF
:102E6000611BB94202DA504600F0BCF83DB172195C
:102E70004146504600F0FAF85046FFF777FE5946B3
:102E8000059888471048016809B1002088475046D6
:102E9000FFF78EFE3D44A542E2DB5046FFF746FFBA
:102EA000002000F0BBF8A74206D0D9F80000806CE3
:102EB00010B1332108F0A6FE00F01AFF0020CCE785
:102EC000F40000202C010020BC03002038B50500D0
:102ED0004FF0000411D0FFF713FE2846FEF72CFE3A
:102EE0000090006800698068804705F0BFFC0446D8
:102EF0006846FEF77DFE00F0FBFE204638BD38B583
:102F000004000ED0FFF7FCFD2046FEF715FE00F191
:102F1000180400906846FEF76BFE00F0E9FE2046BC
:102F200038BD002038BD000038B504460025FFF745
:102F3000E7FD1CB908480068046E44B12046FEF75E
:102F4000FBFD0090B0F904506846FEF751FE00F01A
:102F5000CFFE284638BD0000F400002038B50446F6
:102F60000025FFF7CDFD1CB908480068046E44B188
:102F70002046FEF7E1FD0090B0F906506846FEF7E6
:102F800037FE00F0B5FE284638BD0000F4000020F2
:102F900038B504460025FFF7B3FD1CB908480068A2
:102FA000046E44B12046FEF7C7FD0090B0F90A5008
:102FB0006846FEF71DFE00F09BFE284638BD000067
:102FC000F400002070B505460024284609F04EF9AB
:102FD000641C18B1BDE8704000F07AB8052CF4DB31
:102FE00070BD000038B50C46050004D10A480068E1
:102FF000056E002D0FD0FFF783FD2846FEF79CFDE0
:103000000090B0F90A10A14200DD44816846FEF745
:10301000EFFD00F06DFE38BDF4000020F8B5054668
:10302000FFF76EFD104E3068046ECDB10CB100F0AC
:10303000A9FB07F04BF92846FEF77EFD00903168AA
:103040000D660068FFF72CF96846FEF7D1FD05F024
:103050009DFA05F0DDF900BF00F04AFE2046F8BDFC
:1030600000F090FBF8E70000F40000207CB5154666
:103070000E46040004D115480068046E002C24D0CC
:10308000FFF73EFD2046FEF757FD2DB20090C580AC
:1030900034B2848005F0BCF90098406980B1FEF735
:1030A0004BFD009A0190B2F908108180B2F90A2014
:1030B000C28011B10AB10480458001A8FEF798FDD5
:1030C0006846FEF795FD00F013FE7CBDF40000207D
:1030D00001490A4600F002B801F0FFFF7FB515462E
:1030E0000C4606002DD0FFF70BFD3046FEF724FD01
:1030F00040F6FF710190CC4203D1B0F90440B0F921
:1031000006500289611E1144ADF80840ADF80C105C
:103110004189681E0844ADF80E00ADF80A5001A8B8
:10312000FEF766FD02A808F0DDF906E02A46214612
:10313000304600F049F908F089F90028F6D100F08E
:10314000D7FD7FBD2DE9FF4FDFF8E8B083B01C4607
:10315000DBF80010DDE9106092464FF000084B7C70
:1031600042461299FFF75EF8050060D02869806832
:10317000804705F07BFB81460AFB09F1C91DCF089A
:10318000FEF714FDF10705D1C11700EB9170801017
:1031900000EB4000002C09DC1FB11838B0FBF7F041
:1031A00000E000206442A04200DC0446F00707D1A2
:1031B0000090DDE903012346524600F007FD8046FA
:1031C000002C03DC2846FFF769F830E004FB07F029
:1031D0001830F10702D0FEF783FB01E0FEF78FFB0A
:1031E00006001CD0FEF7A8FC0190056003998180C1
:1031F0000499C180A0F808A04481C0F81480C0E9F7
:10320000037901A8FEF7F4FC1298AE602861DBF8A0
:103210000000407CA861304607B0BDE8F08F28462A
:10322000FFF73CF8B8F1000001D0FEF787FB002063
:10323000F2E70000F40000202DE9F74F8EB01446AD
:1032400089460E98FEF778FC0990B0F908B0B0F9FD
:103250000A600068006940680C9009A8FEF7C8FC85
:10326000564D574F2868407C57F82000C1688A6A3D
:10327000082190470790182801D32020079028683C
:10328000407C57F820000069069003C80B904D4819
:10329000814201D0012000E000200A90002000F0CF
:1032A0008DFD00287DD1286809EB0B01B0F90C20B9
:1032B000891A491E002902DDABEB010500E05D46DD
:1032C000B0F90810494505DDA1EB090189446D1AE3
:1032D000089101E000210891002D6BDDB0F90E206E
:1032E000A119891A491E002902DDA6EB010800E098
:1032F000B046B0F90A00A04204DD061B3444A8EB36
:10330000060800E00026B8F1000F53DD0898019090
:103310000DA95F46DDF830A00E980091FFF7EFFD94
:10332000774300EB870101982B4601EB800200995F
:103330004846CDE900A1214600F0DEFF00900028BC
:1033400038D00A98E8B1DDE906322946009800F045
:10335000E5FDB0B90698009FDA46D0F810C0BCF180
:10336000000F05D004235A4639463846E04708E0A6
:103370000B993868884701C7AAF101005FEA000A83
:10338000F6D100990020079ACDE9030105900120AC
:103390000090CDE9010221460346641C2A464846B6
:1033A00000E007E004F0E8F9A8F10100761C5FEA0C
:1033B0000008ABD111B0BDE8F08F0000F400002090
:1033C0000C010020C37D0008F8B515460E460746DF
:1033D000FEF7B2FB009000681621C068426A002028
:1033E000904704466846FEF703FC002C03D02A46AB
:1033F00031463846A047F8BDF8B516460F460500D9
:1034000012D0FEF799FB009044696846FEF7F0FB86
:103410002846FFF75BFD0346082800DD2CB1324645
:10342000394628460FF0DAFEF8BD324639462846BE
:1034300010F074F8F8BD10B5002821D009B30AB314
:10344000B1F90040B2F900309C4200DA2346038013
:10345000B1F90240B2F902309C4200DA23464380BF
:10346000B1F90440B2F904309C4200DD2346838068
:10347000B1F90610B2F90620914200DC1146C18074
:1034800010BD11460A6802604968416010BD0028FD
:103490000BD003880B4403808388194481804188C2
:1034A00011444180C1881144C180704770B50E4DF0
:1034B0000446D5E90001884209D10C49884201D16E
:1034C0003C3000E00C3807C884E8070006E090E8CC
:1034D0000E0084E80E000DF083FE2860207A00289C
:1034E00000D0012070BD00004C030020BCA90020CA
:1034F0000448D0E90010814201D10120704700202A
:10350000704700004C030020054A10B503491160C4
:103510000FF0DEFCBDE8104000F032BAF9A600085A
:103520001C01002070B50025FFF7EAFA094CD4E928
:10353000002082420AD0D2E9005610460DF05AFE11
:1035400020603146284607F003FC012500F0D0FB3F
:10355000284670BD3C0300202DE9FC41154DDDE9F6
:1035600008742D68B5F90860864200DD3046B5F96B
:103570000C60964200DA3246824219DBB5F90A60E5
:103580008E4200DD3146B5F90E509D4200DA2B46E1
:103590008B420DDB00E02C46E5682D6825B1042D3B
:1035A00002D02568002DF6D1CDE9007404F01AFE92
:1035B000BDE8FC81F4000020B0F90220B1F906302A
:1035C0009A4213DCB1F90220B0F906309A420DDCC0
:1035D000B0F90020B1F904309A4207DCB1F90010CB
:1035E000B0F90400814201DC0120704700207047DF
:1035F0000146024870220068FCF702BEF400002079
:1036000038B5040020D0FFF77BFA20460FF00AFD02
:1036100020460FF0A5FD2046FEF78EFA00900068C8
:10362000FEF7AAF90098C068FEF788F90098C0690B
:10363000FEF784F96846FEF7DBFA2046FEF77EF9CE
:10364000BDE8384000F054BB38BD70B515460E4695
:1036500004000AD0FFF754FA2A46314620460FF0FC
:1036600021F8BDE8704000F043BB70BD38B50400E0
:103670001ED0FFF745FA2046FEF75EFA0090007C68
:10368000800710D420460DF032FF6846FEF7B0FAEE
:1036900020460FF027FB2046FEF74EFA0090018AE5
:1036A00041F0020101826846FEF7A2FA00F020FB19
:1036B00038BD00002DE9F84304460088089F914674
:1036C0008846E8B36088D8B3E06818B180680028FD
:1036D0003BD002E0E088202836D107F0010200212B
:1036E0002348FEF79FFD05002ED0208886006088C5
:1036F0004643FFF705FA06F12000FEF700F9060041
:1037000025D03046AE60FEF717FA0090078244617C
:10371000A0F80480A0F80690238808EB0301491E56
:10372000018161884944491E418105606846FEF770
:103730005FFAE06878B12146304608F0F1FE00E01B
:1037400002E040B100F0D4FA0020BDE8F88328463A
:10375000FEF7A4FDF6E7B80705D530460DF0C7FE25
:1037600030460FF0BFFA00F0C3FA3046EDE7000034
:103770001CCB0208024970220968FCF741BD000019
:10378000F400002010B5FFF7BBF904F0F7FD04F0DA
:10379000FDFE06F09BFCBDE8104000F0A9BA000059
:1037A00070B50B4D04462868467CFFF7A9F9022C3A
:1037B00009D22046FEF7DCFD28B128684474FFF7E3
:1037C000E1FF0448046000F093FA304670BD000049
:1037D000F40000208802002010B50446FFF790F99D
:1037E000204604F0EBFDBDE8104000F081BA10B5B2
:1037F0000446FFF785F9204604F018FEBDE81040A6
:1038000000F076BA10B50446FFF77AF905496FF073
:10381000704009680863204604F00EFEBDE81040C1
:1038200000F066BAF400002001498860704700008B
:10383000E800002010B50446FFF762F9204604F0C6
:103840000DFE044600F054FA204610BD70B5044643
:10385000FFF756F904480068C56904B1C46100F077
:1038600047FA284670BD0000F400002070B51446E9
:103870000D460646FFF744F922462946304604F035
:103880002FFE044600F034FA204670BD70B5144691
:103890000D460646FFF734F922462946304604F025
:1038A00035FE044600F024FA204670BD70B50C4683
:1038B0000546FFF725F92146284604F053FE044645
:1038C00000F016FA204670BD70B50546FFF718F9EE
:1038D00003480068847E857600F00AFA204670BDB1
:1038E000F400002070B50C460546FFF709F90948B9
:1038F000224605800848048008480068417C084842
:1039000050F82100C1680B6A29469847BDE870400D
:1039100000F0EEB93401002036010020F400002050
:103920000C01002070B50546FFF7EAF8034800686F
:10393000047E057600F0DCF9204670BDF40000201E
:1039400070B50446FFF7DCF804480068B0F92C5065
:10395000848500F0CDF9284670BD0000F4000020F9
:1039600070B50446FFF7CCF804480068B0F92A5057
:10397000448500F0BDF9284670BD0000F400002029
:1039800002480068002800D00047704790030020DC
:1039900002498A6802B98860FFF7F2BF3C03002041
:1039A00010B504000ED0FFF7ABF820460EF036FB42
:1039B00020460FF0ADFB2046FDF7C0FFBDE81040EC
:1039C00000F096B910BD38B50C46050011D0FFF7D0
:1039D00097F82846FEF7B0F800908089204201D081
:1039E000012400E000246846FEF702F900F080F9A7
:1039F00000E00124204638BD38B505460020286087
:103A00000648046844B12046FEF796F80090006925
:103A100028606846FEF7ECF8204638BD7C0300209D
:103A200038B504004FF000000D46086011D0204664
:103A3000FEF782F80090846844B16846FEF7D8F833
:103A40002046FEF779F80090006928606846FEF786
:103A5000CFF8204638BD00003EB504460C220E4982
:103A6000FCF713FC002813D00B4894E80E0080E804
:103A70000E000A48026862B194E80B008DE80B0062
:103A8000684601A99047002802D16846FFF73CFD2F
:103A90003EBD2046FAE7000018A9002038010020AA
:103AA0002DE9F041084E0446056830680168284653
:103AB0008847074630684168284688472844206080
:103AC0003846BDE8F0810000F80000202DE9F04103
:103AD0000C4606460025064F05E03868416830462A
:103AE000884706440544641EF7D22846BDE8F081A5
:103AF000F80000202DE9F0411E46069C1746884636
:103B000005463A46A8687F1C3346D0F804C04146B3
:103B10002846E047641EF4D1BDE8F08170B5B0F9E5
:103B20000040091BB0F904408C422CDD00F1140464
:103B3000B0F902500069521B02FB0040CA1800EBAA
:103B4000E104521ED010B0EBE10501F007034FF085
:103B5000FF0102F0070221FA03F0C2F1070201FAA5
:103B600002F1CEB221780FD001436D1E04F8011B83
:103B7000002D05DDFF2229462046FCF761FB2C4481
:103B800020783043207070BD30400143217070BDFB
:103B900010B5B0F90030B0F90240C91A00F11403B1
:103BA0000069121B02FB003000EBE10001F007038B
:103BB00002788021D9400A43027010BDB0F9061086
:103BC000026951431430FCF742BB00002DE9F84371
:103BD000804602F10F000011470003FB07F01C466E
:103BE000154689461430FDF78AFE060018D0FEF708
:103BF00087FF3046FDF7A0FF0090A0F80080A0F8F6
:103C000002908580C480074981600121818107611C
:103C10006846FDF7EDFF00F06BF83046BDE8F8832D
:103C20000020FBE7C8D3020870B5B0F90660B0F910
:103C300004400B6800F1140596421BDD0069A342A5
:103C400002FB005000EBE30214DA641EE010A0EB6C
:103C5000E30512F8010B03F00704A040C4B206E02C
:103C600045B1083312F8014B23F007036D1E002CF9
:103C7000F6D004E0002070BD6006040E5B1C200638
:103C8000FAD5FF2C07D0184602E06406240E401C2B
:103C90006606FAD400E0D81DC443640705D006E0E8
:103CA00012F8014BFF2C09D108306D1EF8D5C01A4F
:103CB000401C0B6070BD6206140E401C2206FAD434
:103CC000F5E738B50546FEF71BFF2846FDF734FF3C
:103CD00000908189491E0CB284816846FDF788FFF7
:103CE00014B92846FDF72AFE00F002F838BD00009E
:103CF0000348C168491EC16001D100F057B8704740
:103D0000600300202DE9F04116460F4605460024C9
:103D1000FEF7F6FE32463946284601F0D1F9054451
:103D200008B1641CF6E7FFF7E3FF2046BDE8F08129
:103D300010B54FF400410348FDF7F8FD0248FFF7C6
:103D400073FD10BD882700207CBC020810B5044616
:103D5000204614F073FA10BD704710B513F06CF8DC
:103D600010BD10B515F01CF910BD70471CB5002032
:103D7000019001A812F0CEFF0549086000200090D4
:103D80000121684613F02AF8024908601CBD0000B2
:103D9000C0000020C400002010B54FF0FF310248E1
:103DA000006812F0E5FF10BDC000002010B5024809
:103DB000006812F0B5FF10BDC00000200EB508B1BC
:103DC00002AA00E00022002301A9684600F0F0FEEC
:103DD0000EBD0000074910B50C7818B1012008701D
:103DE000801E03E0002008706FF07F4003F0AEFCFF
:103DF000204610BD2E01002010B5082A0EDC034617
:103E0000012A18D0022A56D0042A76D010F8042BA2
:103E100003F8012B491EF9D1012010BD102A08DC3E
:103E20004FEA000230F8043B22F8023B491EF9D168
:103E3000F2E7002010BD10F8042BD207120E491E25
:103E400034D010F8044B491E04F0010442EA8412F5
:103E50002CD010F8044B491E04F0010442EA44122D
:103E600024D010F8044B491E04F0010442EA041265
:103E70001CD010F8044B491E04F0010442EAC402AD
:103E800014D010F8044B491E04F0010442EA8402E5
:103E90000CD010F8044B491E04F0010442EA44021D
:103EA00004D010F8044B04F00104224303F8012B62
:103EB0000029C0D1B0E710F8042B9207120E491E5A
:103EC00015D010F8044B491E04F0030442EA041212
:103ED0000DD010F8044B491E04F0030442EA84029A
:103EE00005D010F8044B04F003042243491E03F8E4
:103EF000012B0029DFD18FE7FFE710F8042B120711
:103F0000120E491E05D010F8044B04F00F04224392
:103F1000491E03F8012B0029EFD17DE738B50024B5
:103F2000009400F01DF838BD0B4810B581690029D8
:103F300010D101218161FFF7FBFEFDF78FFC04F03A
:103F400037FB054905481C310860BDE810400846AC
:103F500001F040B810BD0000E80000209D180108E5
:103F60002DE9F0410D460699044601B901461F6846
:103F7000082A09DC0E46012A1AD0022A5BD0042A3C
:103F80007DD0082A13D18DE0102A07DCD3F810C0A9
:103F90000E46BCF1000F04D0022389E00020BDE8EA
:103FA000F08101CCB84726F8020B6D1EF9D189E0EB
:103FB00001CCB847C0074FEA10686D1E36D001CC5F
:103FC000B84748EA801000F0FF086D1E2ED001CCE3
:103FD000B84748EA401000F0FF086D1E26D001CC1B
:103FE000B84748EA001000F0FF086D1E1ED001CC53
:103FF000B84748EAC00000F0FF086D1E16D001CC9B
:10400000B84748EA800000F0FF086D1E0ED001CCD2
:10401000B84748EA400000F0FF086D1E06D001CC0A
:10402000B84740EA080000F0FF086D1E06F8018B53
:10403000002DBDD146E001CCB84780074FEA10689B
:104040006D1E16D001CCB84748EA001000F0FF08FA
:104050006D1E0ED001CCB84748EA800000F0FF0882
:104060006D1E06D001CCB84740EA080000F0FF08FA
:104070006D1E06F8018B002DDDD123E0FFE701CC9A
:10408000B84700074FEA10686D1E06D001CCB8474C
:1040900040EA080000F0FF086D1E06F8018B002DB5
:1040A000EDD10FE0D3F810C0BCF1000F04D0012314
:1040B0002A462046E04705E001CCB84706F8010B48
:1040C0006D1EF9D101206AE730B54589039CD58082
:1040D00005899580858901EB85051035C2E9025374
:1040E00085881580C58855801461002B08D0827B97
:1040F0001A718089186008B1103100E000219960C0
:1041000030BD00007CB5064628480D46006868B101
:10411000002007F0E7F906E06A462946304608F035
:104120006DF907F093F90028F6D17CBD1068009076
:104130001F4C506801902268BDF8000032F84C1FF7
:104140000844ADF80000BDF8020091880844ADF8BD
:104150000200BDF8040011880844ADF80400BDF861
:10416000060091880844ADF80600684607F0BAF9E1
:104170000EE000BF2068BDF800106A464184BDF81B
:10418000021081842946304608F038F907F05EF9BC
:104190000028EFD1206830F8221F428D891A018053
:1041A0004188C28D891A41807CBD00003001002009
:1041B000F40000202DE9FF4F85B09A4690460D4649
:1041C000FEF700FC4FF00009DDF814B006464C463F
:1041D00025B1286800906868019002E06846FEF703
:1041E000D5FB18F00C0F02D05546002713E0BDF99F
:1041F00002402DE029467F1C059800F051FD014644
:104200006D1A0598FFF762FC05990844059005A80A
:1042100000F08AFD08B9002DECD108F00C0004284C
:1042200004D0082802D00C2812D105E0BDF9060000
:1042300007FB1604641C0BE0BDF90600BDF9021073
:10424000401A07FB1600401C00EBD07001EB600425
:104250005546CDF814B043E02946059800F020FDFE
:1042600007460146ED1B059800F0F0FC18F003012D
:104270000ED0012939D002290DD1BDF90410BDF9A4
:104280000020891A091A01EBD17102EB610101E0EA
:10429000BDF900108946174A401E48441268394645
:1042A000A2F822909484ADF80C00A019401EADF83D
:1042B0000890ADF80E00ADF80A4002AA0598FFF785
:1042C00021FF39460598FFF701FC05990844059040
:1042D000FEF778FB044405A800F026FD002801D174
:1042E000002DB9D109B0BDE8F08FBDF90410091A4D
:1042F000491CCFE7F40000202DE9FF4F8DB00020CE
:10430000DDF86CA0164600901D4604460246CAF829
:10431000000008AB03A902A800F04AFC18B1002075
:1043200011B0BDE8F08F0898854200DD0546614F69
:104330000B9561493868407C51F820100491096957
:104340000691FEF7E7FA05903868407CFEF77CFBA3
:104350005A498146884204D05949894501D00120F3
:1043600000E000200A9001CE1A9988478346000E8B
:10437000079077D0009870BB0D9800EB04084D486B
:104380000068B0F90800404503DDA0EB080780464F
:1043900000E000270298049900EB840000EB8700FE
:1043A000CDE900010B990D98421809920E9B4046E9
:1043B0001946521EFFF7D0F80120009005981828E2
:1043C0000ADA0298DDE9052300EB840000EB8700A0
:1043D000E91B00F04BFB12E00A9880B1029800EB59
:1043E000840000EB87070998A0EB08084946386865
:1043F000884701C7A8F101005FEA0008F6D13148FB
:10440000C06980B3DDE9020700EB840007EB84029A
:10441000CDE902022B4C361F3046E4692B46029947
:10442000A047FF213068B1EB106F02D102980068FD
:1044300004E0029A1268B1EB126F01D1039A106086
:10444000029806F10406001D02900398001D0390D7
:104450006D1EE7D10397DAF8000040F00101CAF8B9
:10446000001020E021E0FFE70798FF2811D0C0F1FD
:10447000FF02029850F82410584600F019FD0399E5
:1044800041F82400DAF8000040F00101CAF80010F9
:1044900005E00298039950F8240041F82400641CB8
:1044A0006D1E7FF460AF03983AE7039941F824B09A
:1044B000E8E70000F40000200C010020C37D0008A4
:1044C000C17D0008E40200202DE9F04F8FB01D46A9
:1044D00016460F468146DDF87480189CFEF75BFA9D
:1044E0000B9003F00DFB0190DDE91A0108434FEA40
:1044F000460B012803D04FF0000A099709E18848CC
:104500000068407CFEF7A0FA1C994FF0000C88422E
:1045100011D101200DF104081021009088E8030852
:10452000CDE9044C2B4632463946484603F024F97F
:104530000FB0BDE8F08F7819401E049009EB06001B
:10454000A0F1010A76480168B1F90A20BA4207DDF4
:10455000D31B174603FB0BF222F001021444ED1AA1
:10456000B1F90E30049AD21A002A00DDAD1A002DDE
:10457000DEDDB1F90C30AAEB0302002A00DDB61A29
:10458000B1F90800484505DDA0EB0900361A04EB37
:1045900040048144002ECBDD0020CDF818C00890E7
:1045A000B8F1000F09D0D8F81400089028B1002302
:1045B0001A46194606A800F0FBFA03F0A9FA80464D
:1045C00057480068407CFEF737FA0590D8F800C0DD
:1045D000524639464846049BE04700285CD106987D
:1045E000E8B34F484F490068407C51F8200000690B
:1045F0000069049030E0089F022332462046069965
:10460000B847049830B10699049F042332460846FF
:10461000B8470EE0069800278246814607E000BFB3
:10462000059959F8040B88474AF8040B7F1CB742D8
:10463000F6DB0027DDF8189006E000BFD8F804107C
:1046400059F8040B88477F1CB742F7DBD8F80800FD
:1046500080472BF0010004446D1ECCD219E016E017
:10466000A14600270AE000BF1C9939F8020B8847D1
:1046700005998847D8F8041088477F1CB742F3DBB8
:104680003DB1D8F8080080472BF0010004446D1EAE
:10469000E6D2D8F80C0080473DE01B990998084401
:1046A0000D90401E07901E4801680798B1F90A2036
:1046B000824225DCB1F90E100998814220DBA04628
:1046C0000027CDF8289019E038F8020B0090DDE9BA
:1046D0000001884205D01C99884703F0A7FE009886
:1046E00001900A991A98079B0A180092DDE90910AF
:1046F000521E03F0CDF9009A7F1C0A92B742E3DB09
:104700000BEBDB7020F0010004440D980AF1010A64
:104710000990AA45C1DB0B98FFF769F808E700008C
:10472000F40000200C0100202DE9FF4F93B0002081
:10473000DDF8908010906FF070400190DDE922501C
:1047400017460543AD4E02EB47000F9030689A467E
:10475000209C407CFEF770F90A903068407CFEF7A0
:10476000D9F80890182803D0082804DC012007E0B5
:104770002020089003E0102801DC022000E0042043
:104780001190012D04D014984FF0000B079031E1E7
:104790009A480068407CFEF757F9404501D1012056
:1047A0001090002309AA1946184600F001FA0028C3
:1047B00072D10025A9462678FF2E01D086B193E05C
:1047C0006D1CBD4207D1002509F10109BAF1000FA6
:1047D00062D0AAF1010A14F8030FFF28F0D0A3E079
:1047E0001398149928440D9001EB09000C9010982F
:1047F000002678B10998A1786278E41C01EB0221C7
:104800006D1C761C20F8021BBD4225D021780029A2
:10481000F1D057E01198012804D0022826D00428AE
:1048200050D13AE0DDE9080B01284BD0022849D0ED
:10483000042847D0082845D1A078617800EB0120F2
:1048400080B2414688470A998847E41C6D1C761C53
:104850000BF8010BBD4205D1002509F10109AAF1B0
:10486000010A2FE020780028E6D02BE0DDF824B004
:10487000A078617800EB012080B2414688470A9910
:104880008847E41C6D1C761C2BF8020BBD42E3D05C
:1048900020780028ECD015E04AE0DDF824B0A078BC
:1048A000617800EB012080B2414688470A99884729
:1048B000E41C6D1C761C4BF8040BBD42CCD0207858
:1048C0000028ECD0DDE908020DF1080B00230F9958
:1048D0008BE80F000120009003460190DDE90C10E9
:1048E000324602F049FF1FE0A178607801EB00201A
:1048F00080B241468847034614991398C6F1FF02D7
:104900004944284400F06EFB6D1CBD4207D10025D0
:1049100009F10109BAF1000F0AD0AAF1010A14F84D
:10492000036F701EFE28DFD3BAF1000F7FF443AF90
:1049300017B0BDE8F08F0799239808440C90401EEB
:1049400003902E4801680398B1F90A2082424DDC99
:10495000B1F90E100798814248DB139800260690A3
:1049600042E0A0786178257800EB012080B24146D2
:10497000884701990090884203D003F057FD0098C2
:104980000190FF2D2AD2069905B307980F91029046
:10499000069922980844A0F1010903980D90C5F1E9
:1049A000FF000590009804900F9D06E0DDE90432B9
:1049B0002846029900F016FB6D1C4D45F6DD029865
:1049C0000D99401C02908842EEDD07E02298039B7F
:1049D0000A18DDE90601521E03F05AF822990698DA
:1049E000E41C0844761C0690BE42BADB0C980BF11E
:1049F000010B0790D3459EDB9AE70000F4000020EE
:104A00002DE9FF4F87B00C46DDE91698DDE914BAB1
:104A10000546FEF775F81448099A0168C86C096DD7
:104A2000471985180E190A98ADF810700C18ADF8D2
:104A30001450ADF81260ADF8164004A806F052FD0F
:104A40000BE0CDE90298CDE900BA23462A4631466B
:104A500038460AF0ADFE06F0F9FC0028F1D1FFF768
:104A600047F90BB0BDE8F08FF40000202DE9F05FAE
:104A70000C1E16DD5E68014600EB8405082A12DC78
:104A8000611E012A26D0022A47D0042A6AD0082AA9
:104A900007D1071917F8010DB04745F8040D641E3A
:104AA000F8D1BDE8F09F102AFBDC5F693FB12246D8
:104AB000BC46BDE8F04F02235DF804EB604701EB14
:104AC000440700BF37F8020DB04745F8040D641ED7
:104AD000F8D1E6E700EBE10001F0070710F801A9C3
:104AE0008146802020FA07F8B5F104050AEA08009B
:104AF000C7F10701C840B04745F804093FB14FEA84
:104B000048604FEA10687F1E641EEFD1C9E719F8AC
:104B100001A907274FF00108F6E700EBA10001F01B
:104B2000030710F801A981467900C02020FA01F896
:104B30004FF0060BB5F104050AEA0800ABEB47019C
:104B4000C840B04745F804093FB14FEA88604FEAD2
:104B500010687F1E641EEFD1A3E7032719F801A98F
:104B6000B846F7E700EB6100012710F801A9A74359
:104B70008146B900F02020FA01F84FF0040B2D1FF8
:104B80000AEA0800ABEB8701C840B04745F80409C2
:104B90003FB14FEA08704FEA10687F1E641EEFD1E4
:104BA0007FE719F801A901274FF00F08F6E7000089
:104BB0002DE9F047224C06461F46A06990468946DB
:104BC000002540B90120A06104F120011D480860C2
:104BD000084600F0FFF9606930B91B480068606161
:104BE00010B903F02AF8606107B138604EB1A068CF
:104BF00030B960698000FCF7E7FEA06000B90125CC
:104C00003060B9F1000F0AD0E06830B96069800007
:104C1000FCF7DAFEE06000B90125C9F80000B8F140
:104C2000000F0AD0206930B960698000FCF7CCFE23
:104C3000206100B90125C8F800002846BDE8F087CA
:104C4000E4020020FD1801082401002073B5124A77
:104C500001A900981268904700240090C8B10F493C
:104C600000250968C969496959B10A684AB10199B9
:104C700090477CBD6846FEF713FF0546FDF760FED2
:104C800004440198401E0190F4D5284600F040F8F5
:104C9000044420467CBD00002C030020F4000020CA
:104CA00073B50D460098002490B10A490968C96996
:104CB000496959B14A684AB1294690477CBD68465E
:104CC000FEF7EEFE20B10A2802D0641CAC42F6DBEF
:104CD00020467CBDF400002031B50024009808B9BE
:104CE00005E0641C6846FEF7DBFE0028F9D120468B
:104CF00038BD0000044AB2F9002002600348B0F950
:104D000000000860704700003401002036010020D8
:104D100038B5002469460094FDF724FE00998142CD
:104D200000DD0C1A204638BD016811F8012B12B1C4
:104D30000A2A02D002E0012070470160002070477B
:104D4000B0F90030B1F90020934200DA0280B0F9E6
:104D50000230B1F90220934200DA4280B0F9043007
:104D6000B1F90420934200DD8280B0F90620B1F948
:104D700006108A4200DDC180704770B5B1F900406D
:104D8000B2F900309C4200DD23460380B1F90250A5
:104D9000B2F90240A54200DD2C464480B1F904601E
:104DA000B2F90450AE4200DA35468580B1F90610FA
:104DB000B2F90620914200DB1146C1809D4201DB21
:104DC000A14201DA002070BD012070BD01460248F9
:104DD0000068407C00F002B8F40000202DE9F843A0
:104DE00001268946044602285DDA304F7A6802B10E
:104DF00090472E4D5FEA090005F1100532D00128D9
:104E000003D0B9F1020F4ED118E055F8240088B94B
:104E10002046FDF7ADFA009018B3C0680D21426A34
:104E20006846904702003ED049460098904755F8A2
:104E300024000026401C45F8240034E02046FDF7FD
:104E400097FA009068B1C0680D21426A68469047A1
:104E5000040028D0386800B1804749460098A04730
:104E6000002620E055F82400A846012812D120464B
:104E7000FDF77EFA009068B1C0680D21426A68466D
:104E80009047050006D0386800B180474946009831
:104E9000A847002658F8241009B1012200E000229A
:104EA000891A48F824103046BDE8F8830C03002026
:104EB00070B5FF23B3EB116F29D0C3B200F47F4567
:104EC00000F47F04060E5343554354435643C2F146
:104ED000FF00CAB202FB003201F47F4303FB005320
:104EE00001F47F0505FB0044090E01FB0065C2F3D8
:104EF00007204FF47F4101EA1322090201EA14213D
:104F00004FF07F43104303EA05430843184370BD45
:104F10002DE9F04F0646DDE90CB915460C46002098
:104F20008046584519D20B9F4FF0FF0A01CE08CC9E
:104F3000AAEB106202FB09F2B2FBFAF1CAB21946FF
:104F4000FFF7B6FF20F07F4001C57F1EEED1099824
:104F500004EB800408F10100E2E7BDE8F08F01688E
:104F600011F8012B11F8013B016042EA03221046BF
:104F7000704713B5044601A8FFF7F1FF208001A890
:104F8000FFF7EDFF608001A8FFF7E9FFA08001A80F
:104F9000FFF7E5FFE08001A8FFF7E1FF208101A80E
:104FA000FFF7DDFF608101A8FFF7D9FFA08101A80D
:104FB000FFF7D5FFE0811CBD0B88134403808B886D
:104FC0009B1A83804B8813444380C988891AC18007
:104FD0007047000002494A6942604861704700001A
:104FE000E80000202DE9F041184C06460D462068E7
:104FF00098461746B0F90A10A94224DCB0F90E1001
:10500000A94220DBB0F90810B1421CDCB0F90C0059
:10501000B04218DB2946304602F0BEFD01463A4652
:105020004046FFF745FF02F099FB034620682A46F9
:10503000417C074850F82100C1688C693146A4467C
:10504000BDE8F0416047BDE8F0810000F4000020B9
:105050000C0100202DE9F843076806468846002524
:10506000384600F0CBF840B3404600F0D7F8441C77
:105070003846FCF74BFD84420CD1F4B13846FCF7BE
:105080005BFD224641460090FBF7BAF86846FCF704
:10509000AFFD11E02046FCF723FC04000DD0FCF727
:1050A0004BFD41460090FBF7FDF86846FCF7A0FD7C
:1050B0003046FCF76DFC346001252846BDE8F883D6
:1050C00010B5044600F009F801462046BDE810403E
:1050D000FEF7FCBC00230EF04FB877B581B0154643
:1050E0000E466B4601980EF047F8044601460198BB
:1050F000FEF7ECFC01990844019001A8FEF7D0FCF2
:105100000A2802D0012D02D012E0641C10E02028F1
:105110000ED1FDF715FC054607E02844009001A8D4
:10512000641CFEF7BDFC202802D100988642F4DA08
:1051300004B0204670BD10B502E000F8011B521EFD
:105140000AB18307F9D1930818D001EB014402F0AA
:10515000030204EB042406E010C01B1F10C040F83B
:10516000084B40F8044C042BF6DA01E010C05B1E3B
:10517000002BFBD102E000F8011B521E002AFAD1DD
:1051800010BD10B5830702D520F8021B521E53082C
:1051900011D001EB0144042B09DB10C01B1F10C010
:1051A000042B40F8084B40F8044CF6DA01E010C03C
:1051B0005B1E002BFBD1D20700D0018010BD024640
:1051C00000204FF080414318934201D8D21A58185A
:1051D00040088908F7D1704700B907A021B906A196
:1051E00002E03AB1401C491C02780B789A42F8D090
:1051F00001207047002070470000000038B50D46C0
:10520000012448B1FCF798FC29460090FFF7E4FF21
:1052100004466846FCF7ECFC204638BD4FF0FF31F1
:1052200028B100BF10F8012B491C002AFAD108460A
:10523000704710B504460CB9012010BD607920B943
:1052400000202071204600F005F801206071002048
:10525000F3E7000008B5094A016891420DD100BF8B
:105260000749496941F04001054A516111464969C0
:1052700001F04001009100BF00BF08BD00300240B6
:105280000010024070B5044600F0F6F906462546C7
:10529000681C10B104480078054400BF00F0ECF928
:1052A000801BA842FAD370BD5800002000B585B01D
:1052B0001648006808B105B000BD01201349086018
:1052C00000BF1348406940F48070114948610846A6
:1052D000406900F48070009000BF00BF4FF68070FE
:1052E0000190022002900320049001A9094800F0D7
:1052F00015F84CF6B3700190022002900320049040
:1053000001A9054800F00AF800BFD4E748000020D2
:105310000010024000180140001401402DE9F84738
:1053200002460024002000258446002700237BE15C
:105330004FF0010808FA03F4D1F8008008EA0400ED
:10534000A0427DD1DFF8ECA2D1F80480A8EB0A09D5
:10535000D0453AD014DCB8F1030F50D009DCB8F1D5
:10536000000F31D0B8F1010F1CD0B8F1020F49D1B4
:1053700020E0B8F1110F18D0B8F1120F42D11EE0A1
:10538000B9F5881F25D006DCB9F5803F20D0B9F5E6
:10539000801F37D11AE0B9F5001F18D0B9F5041FE6
:1053A00030D117E0D1F80CC02DE0D1F80C8008F115
:1053B000040C28E0D1F80C8008F1080C23E0D1F8A7
:1053C0000C8008F10C0C1EE000BF00BF00BF00BF46
:1053D00000BF00BFD1F80880B8F1000F02D14FF034
:1053E000040C0BE0D1F80880B8F1010F03D14FF0A5
:1053F000080C146102E04FF0080C546103E04FF018
:10540000000C00E000BF00BFFF2801D8904601E07B
:1054100002F104084646FF2802D84FEA830803E059
:10542000A3F108084FEA88084746D6F800804FF0F5
:105430000F0909FA07F928EA09080CFA07F900E048
:105440007AE048EA0908C6F80080D1F8048008F03C
:105450008058B8F1805F6FD100BFDFF8DC81D8F8E9
:10546000188048F00108DFF8D091C9F81880C846C4
:10547000D8F8188008F00108CDF8008000BF00BF00
:105480004FEAB9384FEA930958F829504FEA837820
:105490004FEA18794FF00F0808FA09F825EA0805CD
:1054A000DFF89881424502D14FF0000824E0DFF890
:1054B0009081424502D14FF001081DE0DFF8848160
:1054C000424502D14FF0020816E0DFF87C814245E8
:1054D00002D14FF003080FE0DFF87081424502D19E
:1054E0004FF0040808E0DFF86881424502D14FF030
:1054F000050801E04FF006084FEA83794FEA197971
:1055000008FA09F848EA0505DFF848814FEA9309E7
:1055100048F82950D1F8048008F48038B8F5803F65
:105520000BD1DFF83481D8F8008048EA0008DFF8B2
:105530002891C9F800800AE075E0DFF81C81D8F8EE
:10554000008028EA0008DFF81091C9F80080D1F83F
:10555000048008F40038B8F5003F0ED1DFF8F88079
:1055600008F10408D8F8008048EA0008DFF8E8905D
:1055700009F10409C9F800800DE0DFF8DC8008F1CA
:105580000408D8F8008028EA0008DFF8CC9009F178
:105590000409C9F80080D1F8048008F48018B8F52F
:1055A000801F0ED1DFF8B08008F10808D8F800801D
:1055B00048EA0008DFF8A09009F10809C9F800805E
:1055C0000DE0DFF8948008F10808D8F8008028EA98
:1055D0000008DFF8849009F10809C9F80080D1F8C3
:1055E000048008F40018B8F5001F0ED1DFF86880B9
:1055F00008F10C08D8F8008048EA0008DFF8589055
:1056000009F10C09C9F800800DE0DFF84C8008F1C1
:105610000C08D8F8008028EA0008DFF83C9009F16F
:105620000C09C9F800805B1C102BFFF481AEBDE8AB
:10563000F88700000000111000100240000801402F
:10564000000C01400010014000140140001801400E
:10565000001C01400800014000040140024693681C
:105660000B400BB1012000E0002070470AB101613E
:1056700001E00B04036170470148006870470000B7
:105680005000002003480068034909780844014994
:1056900008607047500000205800002010B50848EE
:1056A000006840F0100006490860032000F0C8F8C8
:1056B000002000F007F800F049F8002010BD0000BD
:1056C0000020024070B588B0044600250026002264
:1056D0002146192000F075F8192000F065F800BF88
:1056E0001648806940F40060144988610846806962
:1056F00000F40060019000BF00BF02A903A800F001
:10570000D7FA00F0FDFA05460D48B5FBF0F0461E4D
:105710000C480D49086040F2E7310B48C160466013
:1057200000210161816001F0BFFA20B9064801F053
:10573000F7FA08B070BD0120FBE70000001002403E
:1057400040420F00002C01405806002008B500BF61
:105750001348806940F0010011498861084680695A
:1057600000F00100009000BF00BF00BF0846C06904
:1057700040F08050C8610846C06900F08050009039
:1057800000BF00BF00220F21901E00F01AF800BFDA
:105790000449486820F0E06000BF486000BF08BDD1
:1057A000001002400000014000BF00F01F02012174
:1057B00091404209920002F1E022C2F8001100BFBC
:1057C00070472DE9F05F80460D461646002703F02E
:1057D0002DFA074639462A46334601F00700C0F144
:1057E000070ABAF1040F02D94FF0040A01E0C0F130
:1057F000070AD14600F1040ABAF1070F02D24FF0AE
:10580000000A01E0A0F1030AD4464FF0010A0AFAA7
:1058100009FAAAF1010A0AEA020A0AFA0CFA4FF096
:10582000010B0BFA0CFBABF1010B0BEA030B4AEA81
:105830000B042146404603F001FABDE8F09F00004A
:1058400000BF00F00702064B19684FF6FF0319402E
:10585000044B0B4343EA0221014B196000BF704720
:105860000CED00E00000FA050120014908627047D4
:1058700000000E422DE9F04385B0064644A30FCB4D
:1058800001AC0FC446A0006800904FF0000800254E
:1058900000270024A146042E36D004DC012E3BD084
:1058A000022E6FD162E0082E32D0102E6AD13D4810
:1058B0004468006800F0807000B301A8C4F383411D
:1058C000475C04F4803070B136484068C0F3404013
:1058D0001DF8008004F4803040B13348B0FBF8F08C
:1058E00000FB07F502E0314807FB00F52D48406852
:1058F00000F48000B0F5800F01D1A94603E06800F4
:105900000321B0FBF1F93EE000F00AFA81463AE0EB
:1059100000F006FA814636E02248046A04F440703A
:10592000B0F5807F05D104F0020010B14FF40049BA
:105930001BE004F44070B0F5007F07D11948406ABD
:1059400000F0020010B149F640490EE004F4407046
:10595000B0F5407F07D11348006800F4003010B163
:105960004FF2244901E04FF000090CE000F0C8F9C3
:105970000C494968C1F38131491C4900B0FBF1F978
:1059800001E0FFE700BF00BF484605B0BDE8F08377
:1059900002030405060708090A0B0C0D0E0F101070
:1059A000010200000010024000127A0000093D00D0
:1059B000F8B5044600260025207800F001000028F4
:1059C0006BD000274348C06900F0805070B900BF19
:1059D0004048C06940F080503E49C8610846C069EF
:1059E00000F08050009000BF00BF01273A480068D7
:1059F00000F48070B0B93848006840F480703649CF
:105A00000860FFF739FE064606E0FFF735FE801B0B
:105A1000642801D90320F8BD2F48006800F4807085
:105A20000028F2D02B48006A00F440752DB3A088FE
:105A300000F44070A84220D02648006A20F4407547
:105A4000012026490860002008602248056205F010
:105A5000010090B1FFF710FE064608E0FFF70CFECC
:105A6000801B41F28831884201D90320D3E71948CD
:105A7000006A00F002000028F0D01648006A20F406
:105A800040706168084313490862012F04D1084639
:105A9000C06920F08050C86100BF207800F002008B
:105AA000022807D10B48406820F44040A168084311
:105AB00008494860207800F01000102807D10548F8
:105AC000406820F480006169084302494860002072
:105AD000A1E7000000100240007000404004424274
